{
  "_format": "hh-sol-artifact-1",
  "contractName": "WifeChangingGameStakes",
  "sourceName": "contracts/staking/WifeChangingGameStakes.sol",
  "abi": [
    {
      "inputs": [
        {
          "internalType": "contract IERC20",
          "name": "_token",
          "type": "address"
        },
        {
          "internalType": "uint16",
          "name": "_rate",
          "type": "uint16"
        },
        {
          "internalType": "uint256",
          "name": "_maturity",
          "type": "uint256"
        },
        {
          "internalType": "uint8",
          "name": "_penaltyPct",
          "type": "uint8"
        },
        {
          "internalType": "uint256",
          "name": "_minStakingAmount",
          "type": "uint256"
        },
        {
          "internalType": "uint256",
          "name": "_maxStakingAmount",
          "type": "uint256"
        },
        {
          "internalType": "uint256",
          "name": "_maxStakingUsers",
          "type": "uint256"
        }
      ],
      "stateMutability": "nonpayable",
      "type": "constructor"
    },
    {
      "anonymous": false,
      "inputs": [
        {
          "indexed": false,
          "internalType": "uint256",
          "name": "minStakingAmount",
          "type": "uint256"
        }
      ],
      "name": "MaxStakingAmountChanged",
      "type": "event"
    },
    {
      "anonymous": false,
      "inputs": [
        {
          "indexed": false,
          "internalType": "uint256",
          "name": "maxStakingAmount",
          "type": "uint256"
        }
      ],
      "name": "MinStakingAmountChanged",
      "type": "event"
    },
    {
      "anonymous": false,
      "inputs": [
        {
          "indexed": true,
          "internalType": "address",
          "name": "previousOwner",
          "type": "address"
        },
        {
          "indexed": true,
          "internalType": "address",
          "name": "newOwner",
          "type": "address"
        }
      ],
      "name": "OwnershipTransferred",
      "type": "event"
    },
    {
      "anonymous": false,
      "inputs": [
        {
          "indexed": true,
          "internalType": "address",
          "name": "user",
          "type": "address"
        },
        {
          "indexed": false,
          "internalType": "uint256",
          "name": "value",
          "type": "uint256"
        },
        {
          "indexed": false,
          "internalType": "uint256",
          "name": "penalty",
          "type": "uint256"
        },
        {
          "indexed": false,
          "internalType": "uint256",
          "name": "interest",
          "type": "uint256"
        },
        {
          "indexed": false,
          "internalType": "uint256",
          "name": "index",
          "type": "uint256"
        }
      ],
      "name": "StakeEnd",
      "type": "event"
    },
    {
      "anonymous": false,
      "inputs": [
        {
          "indexed": true,
          "internalType": "address",
          "name": "user",
          "type": "address"
        },
        {
          "indexed": false,
          "internalType": "uint256",
          "name": "value",
          "type": "uint256"
        },
        {
          "indexed": false,
          "internalType": "uint256",
          "name": "index",
          "type": "uint256"
        }
      ],
      "name": "StakeStart",
      "type": "event"
    },
    {
      "anonymous": false,
      "inputs": [
        {
          "indexed": false,
          "internalType": "uint256",
          "name": "interestRate",
          "type": "uint256"
        },
        {
          "indexed": false,
          "internalType": "uint256",
          "name": "maturity",
          "type": "uint256"
        },
        {
          "indexed": false,
          "internalType": "uint256",
          "name": "penaltyPct",
          "type": "uint256"
        }
      ],
      "name": "StakingFeaturesChanged",
      "type": "event"
    },
    {
      "inputs": [],
      "name": "activeStakers",
      "outputs": [
        {
          "internalType": "uint256",
          "name": "",
          "type": "uint256"
        }
      ],
      "stateMutability": "view",
      "type": "function"
    },
    {
      "inputs": [
        {
          "internalType": "address",
          "name": "",
          "type": "address"
        }
      ],
      "name": "activeStakes",
      "outputs": [
        {
          "internalType": "uint256",
          "name": "",
          "type": "uint256"
        }
      ],
      "stateMutability": "view",
      "type": "function"
    },
    {
      "inputs": [],
      "name": "disableStaking",
      "outputs": [],
      "stateMutability": "nonpayable",
      "type": "function"
    },
    {
      "inputs": [
        {
          "internalType": "uint256",
          "name": "recordIndex",
          "type": "uint256"
        }
      ],
      "name": "emergencyWithdraw",
      "outputs": [],
      "stateMutability": "nonpayable",
      "type": "function"
    },
    {
      "inputs": [],
      "name": "enableStaking",
      "outputs": [],
      "stateMutability": "nonpayable",
      "type": "function"
    },
    {
      "inputs": [],
      "name": "getAllGains",
      "outputs": [
        {
          "internalType": "uint256",
          "name": "",
          "type": "uint256"
        }
      ],
      "stateMutability": "view",
      "type": "function"
    },
    {
      "inputs": [
        {
          "internalType": "address",
          "name": "staker",
          "type": "address"
        },
        {
          "internalType": "uint256",
          "name": "recordIndex",
          "type": "uint256"
        }
      ],
      "name": "getGains",
      "outputs": [
        {
          "internalType": "uint256",
          "name": "",
          "type": "uint256"
        }
      ],
      "stateMutability": "view",
      "type": "function"
    },
    {
      "inputs": [],
      "name": "getPastGains",
      "outputs": [
        {
          "internalType": "uint256",
          "name": "",
          "type": "uint256"
        }
      ],
      "stateMutability": "view",
      "type": "function"
    },
    {
      "inputs": [],
      "name": "getPendingGains",
      "outputs": [
        {
          "internalType": "uint256",
          "name": "",
          "type": "uint256"
        }
      ],
      "stateMutability": "view",
      "type": "function"
    },
    {
      "inputs": [
        {
          "internalType": "address",
          "name": "staker",
          "type": "address"
        }
      ],
      "name": "getTotalStaked",
      "outputs": [
        {
          "internalType": "uint256",
          "name": "",
          "type": "uint256"
        }
      ],
      "stateMutability": "view",
      "type": "function"
    },
    {
      "inputs": [],
      "name": "hasExpired",
      "outputs": [
        {
          "internalType": "bool",
          "name": "",
          "type": "bool"
        }
      ],
      "stateMutability": "view",
      "type": "function"
    },
    {
      "inputs": [],
      "name": "interestRate",
      "outputs": [
        {
          "internalType": "uint16",
          "name": "",
          "type": "uint16"
        }
      ],
      "stateMutability": "view",
      "type": "function"
    },
    {
      "inputs": [
        {
          "internalType": "address",
          "name": "",
          "type": "address"
        },
        {
          "internalType": "uint256",
          "name": "",
          "type": "uint256"
        }
      ],
      "name": "ledger",
      "outputs": [
        {
          "internalType": "uint256",
          "name": "from",
          "type": "uint256"
        },
        {
          "internalType": "uint256",
          "name": "amount",
          "type": "uint256"
        },
        {
          "internalType": "uint256",
          "name": "gain",
          "type": "uint256"
        },
        {
          "internalType": "uint256",
          "name": "penalty",
          "type": "uint256"
        },
        {
          "internalType": "uint256",
          "name": "to",
          "type": "uint256"
        },
        {
          "internalType": "bool",
          "name": "ended",
          "type": "bool"
        }
      ],
      "stateMutability": "view",
      "type": "function"
    },
    {
      "inputs": [],
      "name": "mainToken",
      "outputs": [
        {
          "internalType": "contract IERC20",
          "name": "",
          "type": "address"
        }
      ],
      "stateMutability": "view",
      "type": "function"
    },
    {
      "inputs": [],
      "name": "maturity",
      "outputs": [
        {
          "internalType": "uint256",
          "name": "",
          "type": "uint256"
        }
      ],
      "stateMutability": "view",
      "type": "function"
    },
    {
      "inputs": [
        {
          "internalType": "uint256",
          "name": "timespan",
          "type": "uint256"
        }
      ],
      "name": "maxPayout",
      "outputs": [
        {
          "internalType": "uint256",
          "name": "",
          "type": "uint256"
        }
      ],
      "stateMutability": "view",
      "type": "function"
    },
    {
      "inputs": [],
      "name": "maxStakingAmount",
      "outputs": [
        {
          "internalType": "uint256",
          "name": "",
          "type": "uint256"
        }
      ],
      "stateMutability": "view",
      "type": "function"
    },
    {
      "inputs": [],
      "name": "maxStakingUsers",
      "outputs": [
        {
          "internalType": "uint256",
          "name": "",
          "type": "uint256"
        }
      ],
      "stateMutability": "view",
      "type": "function"
    },
    {
      "inputs": [],
      "name": "minStakingAmount",
      "outputs": [
        {
          "internalType": "uint256",
          "name": "",
          "type": "uint256"
        }
      ],
      "stateMutability": "view",
      "type": "function"
    },
    {
      "inputs": [
        {
          "internalType": "address",
          "name": "staker",
          "type": "address"
        }
      ],
      "name": "numberOfStakingRecords",
      "outputs": [
        {
          "internalType": "uint256",
          "name": "",
          "type": "uint256"
        }
      ],
      "stateMutability": "view",
      "type": "function"
    },
    {
      "inputs": [],
      "name": "owner",
      "outputs": [
        {
          "internalType": "address",
          "name": "",
          "type": "address"
        }
      ],
      "stateMutability": "view",
      "type": "function"
    },
    {
      "inputs": [],
      "name": "penaltyPct",
      "outputs": [
        {
          "internalType": "uint8",
          "name": "",
          "type": "uint8"
        }
      ],
      "stateMutability": "view",
      "type": "function"
    },
    {
      "inputs": [],
      "name": "renounceOwnership",
      "outputs": [],
      "stateMutability": "nonpayable",
      "type": "function"
    },
    {
      "inputs": [
        {
          "internalType": "uint16",
          "name": "_rate",
          "type": "uint16"
        },
        {
          "internalType": "uint256",
          "name": "_maturity",
          "type": "uint256"
        },
        {
          "internalType": "uint8",
          "name": "_penaltyPct",
          "type": "uint8"
        }
      ],
      "name": "setFeatures",
      "outputs": [],
      "stateMutability": "nonpayable",
      "type": "function"
    },
    {
      "inputs": [
        {
          "internalType": "uint256",
          "name": "amount",
          "type": "uint256"
        }
      ],
      "name": "setMaxStakingAmount",
      "outputs": [],
      "stateMutability": "nonpayable",
      "type": "function"
    },
    {
      "inputs": [
        {
          "internalType": "uint256",
          "name": "amount",
          "type": "uint256"
        }
      ],
      "name": "setMinStakingAmount",
      "outputs": [],
      "stateMutability": "nonpayable",
      "type": "function"
    },
    {
      "inputs": [
        {
          "internalType": "uint256",
          "name": "stakeAmount",
          "type": "uint256"
        }
      ],
      "name": "stake",
      "outputs": [],
      "stateMutability": "nonpayable",
      "type": "function"
    },
    {
      "inputs": [],
      "name": "stakingEnabled",
      "outputs": [
        {
          "internalType": "bool",
          "name": "",
          "type": "bool"
        }
      ],
      "stateMutability": "view",
      "type": "function"
    },
    {
      "inputs": [],
      "name": "totalStaked",
      "outputs": [
        {
          "internalType": "uint256",
          "name": "",
          "type": "uint256"
        }
      ],
      "stateMutability": "view",
      "type": "function"
    },
    {
      "inputs": [
        {
          "internalType": "address",
          "name": "newOwner",
          "type": "address"
        }
      ],
      "name": "transferOwnership",
      "outputs": [],
      "stateMutability": "nonpayable",
      "type": "function"
    },
    {
      "inputs": [
        {
          "internalType": "uint256",
          "name": "recordIndex",
          "type": "uint256"
        }
      ],
      "name": "unstake",
      "outputs": [],
      "stateMutability": "nonpayable",
      "type": "function"
    }
  ],
  "bytecode": "0x60806040526000600681905560078190556008805460ff191690556009819055600a553480156200002f57600080fd5b506040516200271238038062002712833981016040819052620000529162000256565b6200005d3362000206565b60018055606460ff85161115620000d25760405162461bcd60e51b815260206004820152602e60248201527f50656e616c74792068617320746f20626520616e20696e74656765722062657460448201526d07765656e203020616e64203130360941b60648201526084015b60405180910390fd5b428511620001375760405162461bcd60e51b815260206004820152602b60248201527f4d617475726974792064617465206e6565647320746f2062652073657420696e60448201526a207468652066757475726560a81b6064820152608401620000c9565b600280546001600160a01b038981166001600160b01b031990921691909117600160a01b61ffff8a1602179182905560038790556004805460ff191660ff881617815560058690556006859055600784905560405163095ea7b360e01b81523091810191909152600019602482015291169063095ea7b3906044016020604051808303816000875af1158015620001d2573d6000803e3d6000fd5b505050506040513d601f19601f82011682018060405250810190620001f89190620002e7565b505050505050505062000312565b600080546001600160a01b038381166001600160a01b0319831681178455604051919092169283917f8be0079c531659141344cd1fd0a4f28419497f9722a3daafe3b4186f6b6457e09190a35050565b600080600080600080600060e0888a0312156200027257600080fd5b87516001600160a01b03811681146200028a57600080fd5b602089015190975061ffff81168114620002a357600080fd5b604089015160608a0151919750955060ff81168114620002c257600080fd5b809450506080880151925060a0880151915060c0880151905092959891949750929550565b600060208284031215620002fa57600080fd5b815180151581146200030b57600080fd5b9392505050565b6123f080620003226000396000f3fe608060405234801561001057600080fd5b50600436106101e55760003560e01c80636cc2b4f81161010f5780638da5cb5b116100a2578063d11aca6211610071578063d11aca6214610423578063dd2a8b111461042b578063e8e7dbda14610454578063f2fde38b1461045c57600080fd5b80638da5cb5b146103eb57806390e64d13146103fc578063a694fc3a14610407578063a7a410361461041a57600080fd5b80637c3a00fd116100de5780637c3a00fd1461039e578063817b1cd2146103c65780638aa62b30146103cf5780638d403175146103d857600080fd5b80636cc2b4f8146103395780636daca89a14610341578063715018a61461035457806374f1ca3a1461035c57600080fd5b806339474468116101875780635312ea8e116101565780635312ea8e146102f857806357e333ba1461030b578063612d669e1461031e578063688c572d1461033157600080fd5b8063394744681461027c5780633d74bb09146102a55780633fc15f15146102c45780634d5d0806146102ef57600080fd5b806322b10554116101c357806322b105541461024357806325c065b11461025857806328696de2146102615780632e17de781461026957600080fd5b806307cc6d69146101ea5780631cfff51b1461021d578063204f83f91461023a575b600080fd5b61020a6101f836600461221d565b600c6020526000908152604090205481565b6040519081526020015b60405180910390f35b60085461022a9060ff1681565b6040519015158152602001610214565b61020a60035481565b610256610251366004612238565b61046f565b005b61020a60055481565b61025661050a565b610256610277366004612238565b6105c2565b61020a61028a36600461221d565b6001600160a01b03166000908152600b602052604090205490565b6004546102b29060ff1681565b60405160ff9091168152602001610214565b6002546102d7906001600160a01b031681565b6040516001600160a01b039091168152602001610214565b61020a60065481565b610256610306366004612238565b610c57565b61020a610319366004612238565b61124e565b61025661032c366004612238565b61129c565b61020a61132b565b61020a61140d565b61025661034f366004612251565b611509565b610256611679565b61036f61036a3660046122a0565b6116df565b6040805196875260208701959095529385019290925260608401526080830152151560a082015260c001610214565b6002546103b390600160a01b900461ffff1681565b60405161ffff9091168152602001610214565b61020a60095481565b61020a600a5481565b61020a6103e63660046122a0565b611736565b6000546001600160a01b03166102d7565b60035442101561022a565b610256610415366004612238565b61188f565b61020a60075481565b610256611d41565b61020a61043936600461221d565b6001600160a01b03166000908152600c602052604090205490565b61020a611f83565b61025661046a36600461221d565b612080565b6000546001600160a01b031633146104ce5760405162461bcd60e51b815260206004820181905260248201527f4f776e61626c653a2063616c6c6572206973206e6f7420746865206f776e657260448201526064015b60405180910390fd5b60068190556040518181527fbab979c4e46253c6bf27464cda5697c0bc2ba9fc3a3fc34717ab3b79db6de8d4906020015b60405180910390a150565b6000546001600160a01b031633146105645760405162461bcd60e51b815260206004820181905260248201527f4f776e61626c653a2063616c6c6572206973206e6f7420746865206f776e657260448201526064016104c5565b60085460ff166105b65760405162461bcd60e51b815260206004820152601c60248201527f5374616b696e6720697320616c72656164792064697361626c6564210000000060448201526064016104c5565b6008805460ff19169055565b6002600154036106145760405162461bcd60e51b815260206004820152601f60248201527f5265656e7472616e637947756172643a207265656e7472616e742063616c6c0060448201526064016104c5565b6002600155336000818152600b602052604090205482106106775760405162461bcd60e51b815260206004820152601460248201527f496e76616c6964207265636f726420696e64657800000000000000000000000060448201526064016104c5565b6001600160a01b0381166000908152600b602052604090208054839081106106a1576106a16122ca565b600091825260209091206005600690920201015460ff161561071a5760405162461bcd60e51b815260206004820152602c60248201527f496e76616c6964207374616b653b2074686973207374616b696e67207265636f60448201526b1c99081a185cc8195b99195960a21b60648201526084016104c5565b6003544210156107925760405162461bcd60e51b815260206004820152602660248201527f506f6f6c20686173206e6f742072656163686564206d6174757269747920646160448201527f746520796574000000000000000000000000000000000000000000000000000060648201526084016104c5565b6001600160a01b0381166000908152600b602052604081208054849081106107bc576107bc6122ca565b600091825260208083206040805160c08101825260069094029091018054845260018101549284019290925260028201549083015260038101546060830152600481015460808301526005015460ff16151560a0820152915061081f8385611736565b60025490915081906001600160a01b031663dd62ed3e6108476000546001600160a01b031690565b6040516001600160e01b031960e084901b1681526001600160a01b039091166004820152306024820152604401602060405180830381865afa158015610891573d6000803e3d6000fd5b505050506040513d601f19601f820116820180604052508101906108b591906122e0565b1015801561094e575060025481906001600160a01b03166370a082316108e36000546001600160a01b031690565b6040516001600160e01b031960e084901b1681526001600160a01b039091166004820152602401602060405180830381865afa158015610927573d6000803e3d6000fd5b505050506040513d601f19601f8201168201806040525081019061094b91906122e0565b10155b156109f5576002546001600160a01b03166323b872dd6109766000546001600160a01b031690565b6040516001600160e01b031960e084901b1681526001600160a01b0391821660048201529086166024820152604481018490526064016020604051808303816000875af11580156109cb573d6000803e3d6000fd5b505050506040513d601f19601f820116820180604052508101906109ef91906122f9565b506109f9565b5060005b600254602083015160405163a9059cbb60e01b81526001600160a01b038681166004830152602482019290925291169063a9059cbb906044016020604051808303816000875af1158015610a51573d6000803e3d6000fd5b505050506040513d601f19601f82011682018060405250810190610a7591906122f9565b506001600160a01b0383166000908152600b60205260409020805482919086908110610aa357610aa36122ca565b90600052602060002090600602016002018190555042600b6000856001600160a01b03166001600160a01b031681526020019081526020016000208581548110610aef57610aef6122ca565b9060005260206000209060060201600401819055506001600b6000856001600160a01b03166001600160a01b031681526020019081526020016000208581548110610b3c57610b3c6122ca565b906000526020600020906006020160050160006101000a81548160ff021916908315150217905550826001600160a01b03167f1deb31f039e2645a4e97af07659090228d39e7f992bfaf37af3838ad9665e23a836020015160008488604051610bbe949392919093845260208401929092526040830152606082015260800190565b60405180910390a2816020015160096000828254610bdc9190612331565b90915550506020808301516001600160a01b0385166000908152600c90925260408220805491929091610c10908490612331565b90915550506001600160a01b0383166000908152600c60205260408120549003610c4d576001600a6000828254610c479190612331565b90915550505b5050600180555050565b600260015403610ca95760405162461bcd60e51b815260206004820152601f60248201527f5265656e7472616e637947756172643a207265656e7472616e742063616c6c0060448201526064016104c5565b6002600155336000818152600b60205260409020548210610cfc5760405162461bcd60e51b815260206004820152600d60248201526c092dcecc2d8d2c840d2dcc8caf609b1b60448201526064016104c5565b6001600160a01b0381166000908152600b60205260409020805483908110610d2657610d266122ca565b600091825260209091206005600690920201015460ff1615610d9f5760405162461bcd60e51b815260206004820152602c60248201527f496e76616c6964207374616b653b2074686973207374616b696e67207265636f60448201526b1c99081a185cc8195b99195960a21b60648201526084016104c5565b6003544210610e165760405162461bcd60e51b815260206004820152603460248201527f506f6f6c2068617320686974206d6174757269747920646174652c20706c656160448201527f736520756e7374616b65206e6f726d616c6c792e00000000000000000000000060648201526084016104c5565b6001600160a01b0381166000908152600b60205260408120805484908110610e4057610e406122ca565b600091825260208083206040805160c081018252600690940290910180548452600181015492840183905260028101549184019190915260038101546060840152600480820154608085015260059091015460ff908116151560a08501529054929450610ebc92606492610eb692909116612162565b90612175565b60045490915060ff16600003610f4f57600254602083015160405163a9059cbb60e01b81526001600160a01b038681166004830152602482019290925291169063a9059cbb906044015b6020604051808303816000875af1158015610f25573d6000803e3d6000fd5b505050506040513d601f19601f82011682018060405250810190610f4991906122f9565b506110de565b60045460ff16606403610fb2576002546001600160a01b031663a9059cbb610f7f6000546001600160a01b031690565b6040516001600160e01b031960e084901b1681526001600160a01b03909116600482015260248101849052604401610f06565b60025460208301516001600160a01b039091169063a9059cbb908590610fd89085612181565b6040516001600160e01b031960e085901b1681526001600160a01b03909216600483015260248201526044016020604051808303816000875af1158015611023573d6000803e3d6000fd5b505050506040513d601f19601f8201168201806040525081019061104791906122f9565b506002546001600160a01b031663a9059cbb61106b6000546001600160a01b031690565b6040516001600160e01b031960e084901b1681526001600160a01b039091166004820152602481018490526044016020604051808303816000875af11580156110b8573d6000803e3d6000fd5b505050506040513d601f19601f820116820180604052508101906110dc91906122f9565b505b6001600160a01b0383166000908152600b6020526040902080548291908690811061110b5761110b6122ca565b90600052602060002090600602016003018190555042600b6000856001600160a01b03166001600160a01b031681526020019081526020016000208581548110611157576111576122ca565b9060005260206000209060060201600401819055506001600b6000856001600160a01b03166001600160a01b0316815260200190815260200160002085815481106111a4576111a46122ca565b60009182526020808320600692909202909101600501805460ff191693151593909317909255338152600b9091526040902080546001600160a01b038516917f1deb31f039e2645a4e97af07659090228d39e7f992bfaf37af3838ad9665e23a9187908110611215576112156122ca565b60009182526020822060016006909202010154604051610bbe9286918a9093845260208401929092526040830152606082015260800190565b60006112966301e13380610eb66064610eb686611290600260149054906101000a900461ffff1661ffff1661129060075460065461216290919063ffffffff16565b90612162565b92915050565b6000546001600160a01b031633146112f65760405162461bcd60e51b815260206004820181905260248201527f4f776e61626c653a2063616c6c6572206973206e6f7420746865206f776e657260448201526064016104c5565b60058190556040518181527fcc0cac2fe6e951d2648de0d413fd25e5e685a6551fef63029ba3e28374e1631b906020016104ff565b336000818152600b60209081526040808320805482518185028101850190935280835293949385938493929190849084015b828210156113ca5760008481526020908190206040805160c08101825260068602909201805483526001808201548486015260028201549284019290925260038101546060840152600481015460808401526005015460ff16151560a0830152908352909201910161135d565b50505050905060005b8151811015611404576113e68482611736565b6113f09084612348565b9250806113fc81612360565b9150506113d3565b50909392505050565b336000818152600b60209081526040808320805482518185028101850190935280835293949385938493929190849084015b828210156114ac5760008481526020908190206040805160c08101825260068602909201805483526001808201548486015260028201549284019290925260038101546060840152600481015460808401526005015460ff16151560a0830152908352909201910161143f565b50505050905060005b8151811015611404578181815181106114d0576114d06122ca565b602002602001015160a001516114f7576114ea8482611736565b6114f49084612348565b92505b8061150181612360565b9150506114b5565b6000546001600160a01b031633146115635760405162461bcd60e51b815260206004820181905260248201527f4f776e61626c653a2063616c6c6572206973206e6f7420746865206f776e657260448201526064016104c5565b60648160ff1611156115dd5760405162461bcd60e51b815260206004820152602260248201527f50656e616c74792063616e27742062652067726561746572207468616e20313060448201527f302500000000000000000000000000000000000000000000000000000000000060648201526084016104c5565b600280547fffffffffffffffffffff0000ffffffffffffffffffffffffffffffffffffffff16600160a01b61ffff8681168202929092179283905560038590556004805460ff191660ff86169081179091556040805192909404909216815260208101859052918201527f1a6c18cc066108c97f1858f4ee25fb2decbd473f6f4ed41a144de699842427119060600160405180910390a1505050565b6000546001600160a01b031633146116d35760405162461bcd60e51b815260206004820181905260248201527f4f776e61626c653a2063616c6c6572206973206e6f7420746865206f776e657260448201526064016104c5565b6116dd600061218d565b565b600b60205281600052604060002081815481106116fb57600080fd5b600091825260209091206006909102018054600182015460028301546003840154600485015460059095015493965091945092909160ff1686565b6001600160a01b0382166000908152600b6020526040812054821061178d5760405162461bcd60e51b815260206004820152600d60248201526c092dcecc2d8d2c840d2dcc8caf609b1b60448201526064016104c5565b6001600160a01b0383166000908152600b602052604081208054849081106117b7576117b76122ca565b60009182526020918290206040805160c081018252600690930290910180548352600181015493830193909352600283015490820152600382015460608201526004820154608082015260059091015460ff1615801560a083015290915061182457604001519050611296565b600060035442116118355742611839565b6003545b825190915060009061184c908390612181565b6002546020850151919250611885916301e1338091610eb691606491839161187e91600160a01b900461ffff16612162565b8690612162565b9695505050505050565b60085460ff166118e15760405162461bcd60e51b815260206004820152601a60248201527f5374616b696e67206973206e6f742079657420656e61626c656400000000000060448201526064016104c5565b6003544211156119335760405162461bcd60e51b815260206004820152601e60248201527f54686973207374616b696e6720706f6f6c20686173206578706972656421000060448201526064016104c5565b6005548110156119ab5760405162461bcd60e51b815260206004820152603460248201527f546f6b656e20616d6f756e74206e6565647320746f206265206869676865722060448201527f7468616e20746865206c6f776572206c696d697400000000000000000000000060648201526084016104c5565b600654811115611a235760405162461bcd60e51b815260206004820152602e60248201527f5374616b696e6720616d6f756e742069732067726561746572207468616e206d60448201527f6178696d756d20616c6c6f77656400000000000000000000000000000000000060648201526084016104c5565b600654336000818152600c6020526040902054909190611a449084906121f5565b1115611ade5760405162461bcd60e51b815260206004820152604a60248201527f5374616b696e6720616d6f756e742077696c6c20696e63726561736520796f7560448201527f72207374616b656420746f6b656e73206265796f6e6420746865206d6178696d60648201527f756d20616c6c6f77656400000000000000000000000000000000000000000000608482015260a4016104c5565b6001600160a01b0381166000908152600c60205260408120549003611b7557600754600a54611b0e9060016121f5565b1115611b5c5760405162461bcd60e51b815260206004820152601e60248201527f5468697320706f6f6c2069732061742066756c6c79206361706163697479000060448201526064016104c5565b6001600a6000828254611b6f9190612348565b90915550505b6002546040517f23b872dd0000000000000000000000000000000000000000000000000000000081526001600160a01b03838116600483015230602483015260448201859052909116906323b872dd906064016020604051808303816000875af1158015611be7573d6000803e3d6000fd5b505050506040513d601f19601f82011682018060405250810190611c0b91906122f9565b506001600160a01b0381166000818152600b60209081526040808320815160c081018352428152808401888152818401868152606083018781526080840188815260a08501898152865460018082018955978b52898b2096516006909102909601958655935195850195909555905160028401555160038301559151600482015590516005909101805460ff1916911515919091179055928252600c90529081208054849290611cbc908490612348565b925050819055508160096000828254611cd59190612348565b9091555050336000908152600b60205260409020546001600160a01b038216907f01030a23696d25d6138e45b2944d465c807d48422a2700ae29527f92b6cb439c908490611d2590600190612331565b6040805192835260208301919091520160405180910390a25050565b6000546001600160a01b03163314611d9b5760405162461bcd60e51b815260206004820181905260248201527f4f776e61626c653a2063616c6c6572206973206e6f7420746865206f776e657260448201526064016104c5565b60085460ff1615611dee5760405162461bcd60e51b815260206004820152601b60248201527f5374616b696e6720697320616c726561647920656e61626c656421000000000060448201526064016104c5565b6003544210611e655760405162461bcd60e51b815260206004820152602b60248201527f5468697320706f6f6c2068617320616c72656164792072656163686564206d6160448201527f747572697479206461746500000000000000000000000000000000000000000060648201526084016104c5565b600354611e76906103199042612181565b6002546040517fdd62ed3e0000000000000000000000000000000000000000000000000000000081523360048201523060248201526001600160a01b039091169063dd62ed3e90604401602060405180830381865afa158015611edd573d6000803e3d6000fd5b505050506040513d601f19601f82011682018060405250810190611f0191906122e0565b11611f745760405162461bcd60e51b815260206004820152602f60248201527f417070726f7665207468697320636f6e747261637420666f7220746f6b656e2060448201527f7472616e7366657273206669727374000000000000000000000000000000000060648201526084016104c5565b6008805460ff19166001179055565b336000818152600b60209081526040808320805482518185028101850190935280835293949385938493929190849084015b828210156120225760008481526020908190206040805160c08101825260068602909201805483526001808201548486015260028201549284019290925260038101546060840152600481015460808401526005015460ff16151560a08301529083529092019101611fb5565b50505050905060005b815181101561140457818181518110612046576120466122ca565b602002602001015160a001511561206e576120618482611736565b61206b9084612348565b92505b8061207881612360565b91505061202b565b6000546001600160a01b031633146120da5760405162461bcd60e51b815260206004820181905260248201527f4f776e61626c653a2063616c6c6572206973206e6f7420746865206f776e657260448201526064016104c5565b6001600160a01b0381166121565760405162461bcd60e51b815260206004820152602660248201527f4f776e61626c653a206e6577206f776e657220697320746865207a65726f206160448201527f646472657373000000000000000000000000000000000000000000000000000060648201526084016104c5565b61215f8161218d565b50565b600061216e8284612379565b9392505050565b600061216e8284612398565b600061216e8284612331565b600080546001600160a01b038381167fffffffffffffffffffffffff0000000000000000000000000000000000000000831681178455604051919092169283917f8be0079c531659141344cd1fd0a4f28419497f9722a3daafe3b4186f6b6457e09190a35050565b600061216e8284612348565b80356001600160a01b038116811461221857600080fd5b919050565b60006020828403121561222f57600080fd5b61216e82612201565b60006020828403121561224a57600080fd5b5035919050565b60008060006060848603121561226657600080fd5b833561ffff8116811461227857600080fd5b925060208401359150604084013560ff8116811461229557600080fd5b809150509250925092565b600080604083850312156122b357600080fd5b6122bc83612201565b946020939093013593505050565b634e487b7160e01b600052603260045260246000fd5b6000602082840312156122f257600080fd5b5051919050565b60006020828403121561230b57600080fd5b8151801515811461216e57600080fd5b634e487b7160e01b600052601160045260246000fd5b6000828210156123435761234361231b565b500390565b6000821982111561235b5761235b61231b565b500190565b6000600182016123725761237261231b565b5060010190565b60008160001904831182151516156123935761239361231b565b500290565b6000826123b557634e487b7160e01b600052601260045260246000fd5b50049056fea26469706673582212205212544be16e759743320e89ea041390be9b4a6cf1f30dc243483ee7ab91d51164736f6c634300080d0033",
  "linkReferences": {},
  "deployedLinkReferences": {}
}